:1000000045C0000060C000005EC000005CC0000091
:100010005AC0000058C0000056C0000054C0000084
:1000200052C00000D2C200004EC000004CC0000010
:100030004AC0000048C0000046C0000044C00000A4
:100040009AC2000040C000003EC000003CC000005A
:100050003AC0000038C0000036C0000034C00000C4
:1000600032C0000030C000002EC000002CC00000D4
:100070002AC0000028C0000026C0000024C00000E4
:1000800022C0000020C000001EC0000011241FBEBE
:10009000CFEFD0E1DEBFCDBF11E0A0E0B1E0E2E202
:1000A000F7E000E00BBF02C007900D92AA30B10745
:1000B000D9F721E0AAE0B1E001C01D92A932B20750
:1000C000E1F7ABD22CC39CCF80912101909122010A
:1000D000A0912301B0912401BC01CD016F5F7F4F3E
:1000E0008F4F9F4F28EE33E040E050E0D3D2609333
:1000F0002101709322018093230190932401672BA7
:10010000682B692BF9F48091270190E001966CE34C
:1001100070E0ADD280932701811114C08091260137
:1001200090E001966CE370E0A2D2809326018111E9
:1001300009C08091250190E0019668E170E097D2B6
:1001400080932501089514D110922101109222016B
:10015000109223011092240110922701109226017F
:100160001092250110921701109218011092190196
:1001700010921A0181E0809328016DD220E049E3BA
:1001800050E06AE370E081E191E0B9D021E049E319
:1001900050E06AE370E08BE191E0B1C00895CF9345
:1001A000DF93909126018DEC989F812D11248695E7
:1001B00086958695880F282F220F220F820F981B75
:1001C00028EE33E0929FB001939F700D112490911F
:1001D0002701292F30E0C901880F991F220F331FF3
:1001E000220F331F220F331F280F391FE901C60FBB
:1001F000D71F60912101709122018091230190917C
:10020000240124E630E040E050E044D2CA01B901C4
:100210002AE030E040E050E03DD2CE01860F971F4B
:100220009FD1DF91CF9108950F931F938091280163
:10023000882351F0813031F581E191E06DD0823039
:1002400009F5109228011EC081E191E065D082304D
:1002500019F481E0809328018BE191E05DD0823038
:1002600089F410922801109221011092220110921B
:10027000230110922401109227011092260110925E
:1002800025018DDF809128018130C9F42FD00091A4
:100290001701109118012091190130911A0160176E
:1002A00071078207930759F021D06093170170936B
:1002B00018018093190190931A0106DF70DF1F91D6
:1002C0000F91089580910A0190910B01A0910C016A
:1002D000B0910D010196A11DB11D80930A0190936B
:1002E0000B01A0930C01B0930D01089560910A01D8
:1002F00070910B0180910C0190910D010895FC010A
:10030000CB017183608353834283248331E035833F
:10031000422F60E086C10895FC01A281B3818C91D7
:1003200021E030E0048002C0220F331F0A94E2F77C
:10033000282359F48581813041F4AFE3BCE911975A
:10034000F1F700C0000015820895222369F085812D
:1003500081110CC08FE39CE90197F1F700C0000008
:1003600081E0858382E0089580E0089580E008952B
:100370008FEF8093610082B90895CF93DF93CDB75B
:10038000DEB72A970FB6F894DEBF0FBECDBFAC0123
:100390008AE0E0E0F1E0DE01119601900D928A958D
:1003A000E1F780910E0190E0019683709078992397
:1003B00024F401978C6F9F6F019680930E0183B197
:1003C000806F83B980910E01813009F43EC038F00E
:1003D000823009F46AC0833009F495C0B8C09A012C
:1003E000369527953695279536952795A5ECB0E255
:1003F00073D1AC01529542954F7045275F704527E8
:100400009A01ADECBCEC68D1969587959695879549
:10041000969587959C01220F331F880F991F880F8F
:10042000991F880F991F820F931F9A01281B390B60
:10043000E1E0F0E0EC0FFD1FE20FF31F80818093FD
:10044000620083B18F7E83B982C09A013695279569
:1004500036952795ABE7B4E13FD1AC01569547956A
:100460009A01ADECBCEC38D1969587959695879519
:10047000969587959C01220F331F880F991F880F2F
:10048000991F880F991F820F931F9A01281B390B00
:10049000E1E0F0E0EC0FFD1FE20FF31F808180939D
:1004A000620083B18F7D83B952C09A01ADECBCEC80
:1004B00013D1AC0156954795569547955695479556
:1004C0009A010AD1969587959695879596958795E1
:1004D0009C01220F331F880F991F880F991F880FC7
:1004E000991F820F931F9A01281B390BE1E0F0E05E
:1004F000EC0FFD1FE20FF31F80818093620083B138
:100500008F7B83B924C09A01ADECBCECE5D0969505
:10051000879596958795969587959C01220F331F11
:10052000880F991F880F991F880F991F820F931F9B
:100530009A01281B390BE1E0F0E0EC0FFD1FE20F00
:10054000F31F80818093620083B18F7783B92A96ED
:100550000FB6F894DEBF0FBECDBFDF91CF910895E7
:100560009093100180930F01089580910F01909155
:10057000100103CF08951F920F920FB60F9211240E
:100580000BB60F922F933F934F935F936F937F938D
:100590008F939F93AF93BF93EF93FF93E6DF83E82F
:1005A00082BF90DEFF91EF91BF91AF919F918F91AC
:1005B0007F916F915F914F913F912F910F900BBE63
:1005C0000F900FBE0F901F9018951F920F920FB6AD
:1005D0000F9211240BB60F922F933F934F935F937B
:1005E0006F937F938F939F93AF93BF93EF93FF93FB
:1005F000BCDF68DEFF91EF91BF91AF919F918F912A
:100600007F916F915F914F913F912F910F900BBE12
:100610000F900FBE0F901F90189595DD789404DE13
:10062000FECFFC01613059F4208181E090E002C0EE
:10063000880F991F4A95E2F7822B80830895908155
:1006400021E030E002C0220F331F4A95E2F72095E7
:1006500029232083089585B5836085BD85B588608D
:1006600085BD87B7806887BF89EF83BD089597FBF5
:10067000072E16F4009406D077FD08D03CD007FC76
:1006800005D03EF4909581959F4F089570956195A2
:100690007F4F0895A1E21A2EAA1BBB1BFD010DC0BE
:1006A000AA1FBB1FEE1FFF1FA217B307E407F50722
:1006B00020F0A21BB30BE40BF50B661F771F881FFE
:1006C000991F1A9469F760957095809590959B0194
:1006D000AC01BD01CF010895A29FB001B39FC0013D
:1006E000A39F700D811D1124911DB29F700D811D5E
:1006F0001124911D0895AA1BBB1B51E107C0AA1F1D
:10070000BB1FA617B70710F0A61BB70B881F991FB2
:100710005A95A9F780959095BC01CD010895F8945C
:02072000FFCF09
:0A0722003F065B4F666D7D077F67A1
:00000001FF
