S00B0000666E642E73726563E1
S113000045C0000060C000005EC000005CC000008D
S11300105AC0000058C0000056C0000054C0000080
S113002052C0000050C000004EC000004CC0000090
S11300304AC0000048C0000046C0000044C00000A0
S113004043C0000040C000003EC000003CC00000AF
S11300503AC0000038C0000036C0000034C00000C0
S113006032C0000030C000002EC000002CC00000D0
S11300702AC0000028C0000026C0000024C00000E0
S113008022C0000020C000001EC0000011241FBEBA
S1130090CFEFD0E1DEBFCDBF11E0A0E0B1E0EEE7ED
S11300A0F5E000E00BBF02C007900D92AA30B10743
S11300B0D9F721E0AAE0B1E001C01D92A432B20751
S11300C0E1F726D25AC29CCF1F920F920FB60F921D
S11300D011240BB60F922F933F934F935F936F931B
S11300E07F938F939F93AF93BF93EF93FF930AD222
S11300F082E882BFB4D0FF91EF91BF91AF919F91FD
S11301008F917F916F915F914F913F912F910F90BC
S11301100BBE0F900FBE0F901F901895F6D0109243
S113012023011092220110922101109217011092C2
S113013018011092190110921A0107D2789420E044
S113014049E350E06AE370E081E191E0A5D021E069
S113015049E350E06AE370E08BE191E09DC00895CB
S11301600F931F9381E191E0A4D0823071F48091C8
S1130170210190E0019681709078992324F40197ED
S11301808E6F9F6F0196809321018BE191E091D056
S1130190823049F41092210110922301109222011D
S11301A080E090E0AAD180912101882319F0813068
S11301B0C1F01EC081E191E07CD0823019F481E06D
S11301C0809321018BE191E074D0823089F4109204
S11301D02101109223011092220180E090E08DD140
S11301E007C081E191E065D0823011F410922101C1
S11301F080912101882319F0813039F02DC080913C
S113020022019091230179D127C03DD0009117019B
S1130210109118012091190130911A01DC01CB01D0
S1130220801B910BA20BB30B883E9340A105B10533
S113023098F029D0609317017093180180931901E5
S113024090931A0180912201909123010196909339
S113025023018093220151D11F910F910895809120
S11302600A0190910B01A0910C01B0910D0101962E
S1130270A11DB11D80930A0190930B01A0930C0161
S1130280B0930D01089560910A0170910B01809162
S11302900C0190910D010895FC01CB0171836083E1
S11302A053834283248331E03583422F60E033C19A
S11302B00895FC01A281B3818C9121E030E0048097
S11302C002C0220F331F0A94E2F7282359F48581D0
S11302D0813041F4AFE3BCE91197F1F700C00000AD
S11302E015820895222369F0858181110CC08FE362
S11302F09CE90197F1F700C0000081E0858382E06A
S1130300089580E0089580E008958FEF8093610060
S113031082B90895CF93DF93CDB7DEB72A970FB68E
S1130320F894DEBF0FBECDBFAC018AE0E0E0F1E09F
S1130330DE01119601900D928A95E1F780910E01EC
S113034090E0019683709078992324F401978C6F40
S11303509F6F019680930E0183B1806F83B9809162
S11303600E01813009F43EC038F0823009F46AC0CD
S1130370833009F495C0B8C09A013695279536950F
S1130380279536952795A5ECB0E2E8D0AC015295B7
S113039042954F7045275F7045279A01ADECBCEC40
S11303A0DDD09695879596958795969587959C012A
S11303B0220F331F880F991F880F991F880F991FC9
S11303C0820F931F9A01281B390BE1E0F0E0EC0F38
S11303D0FD1FE20FF31F80818093620083B18F7E43
S11303E083B982C09A013695279536952795ABE750
S11303F0B4E1B4D0AC01569547959A01ADECBCEC90
S1130400ADD09695879596958795969587959C01F9
S1130410220F331F880F991F880F991F880F991F68
S1130420820F931F9A01281B390BE1E0F0E0EC0FD7
S1130430FD1FE20FF31F80818093620083B18F7DE3
S113044083B952C09A01ADECBCEC88D0AC0156958E
S1130450479556954795569547959A017FD0969519
S1130460879596958795969587959C01220F331FBE
S1130470880F991F880F991F880F991F820F931F48
S11304809A01281B390BE1E0F0E0EC0FFD1FE20FAD
S1130490F31F80818093620083B18F7B83B924C072
S11304A09A01ADECBCEC5AD09695879596958795B4
S11304B0969587959C01220F331F880F991F880FEB
S11304C0991F880F991F820F931F9A01281B390BBC
S11304D0E1E0F0E0EC0FFD1FE20FF31F8081809359
S11304E0620083B18F7783B92A960FB6F894DEBF82
S11304F00FBECDBFDF91CF910895909310018093EB
S11305000F01089580910F019091100103CF089578
S113051005DE26DEFECFFC01613059F4208181E046
S113052090E002C0880F991F4A95E2F7822B8083DE
S11305300895908121E030E002C0220F331F4A95D4
S1130540E2F7209529232083089583B7856083BF2C
S113055087B7816087BF82E882BF0895A29FB001F8
S1130560B39FC001A39F700D811D1124911DB29FE3
S1110570700D811D1124911D0895F894FFCF84
S10D057E3F065B4F666D7D077F6743
S9030000FC
