:1000000045C0000053C0000051C000004FC00000B8
:100010004DC000004BC0000049C0000047C00000B8
:1000200045C0000043C0000041C000003FC00000C8
:100030003DC000003BC0000039C0000037C00000D8
:1000400035C0000033C0000031C000002FC00000E8
:100050002DC000002BC0000029C0000027C00000F8
:1000600025C0000023C0000021C000001FC0000008
:100070001DC000001BC0000019C0000017C0000018
:1000800015C0000013C0000011C0000011241FBEE5
:10009000CFEFD0E1DEBFCDBF21E0A0E0B1E001C0F5
:1000A0001D92AD30B207E1F743D0BAC0A9CF20E02E
:1000B00049E350E06AE370E087E091E03CD021E062
:1000C00049E350E06AE370E081E091E034D01092BF
:1000D0000001089587E091E042D0823049F4809198
:1000E000000190E0019665E070E073D0809300011C
:1000F00081E091E034D0823011F4109200018091BF
:100100000001823079F028F4882341F0813041F0F9
:100110000895833049F0843049F008954CC0089523
:100120004CC008954DC008954EC008954FC0089525
:10013000BEDFD0DFFECFFC01718360835383428337
:10014000248381E08583FB01308181E090E002C05F
:10015000880F991F2A95E2F7832380830895FC0175
:10016000A281B3818C9121E030E0048002C0220F93
:10017000331F0A94E2F7282359F48581813041F432
:10018000AFE3BCE91197F1F700C0000015820895B4
:10019000222369F0858181110CC08FE39CE90197CE
:1001A000F1F700C0000081E0858382E0089580E0DF
:1001B000089580E0089512BA089583E082BB0895FF
:1001C0008FE082BB08958FE382BB08958FEF82BBDF
:1001D000089597FB072E16F4009406D077FD08D0FB
:1001E0000BD007FC05D03EF4909581959F4F089564
:1001F000709561957F4F0895AA1BBB1B51E107C005
:10020000AA1FBB1FA617B70710F0A61BB70B881FA6
:10021000991F5A95A9F780959095BC01CD01089535
:04022000F894FFCF80
:00000001FF
