S011000074696D65436C6F636B2E7372656378
S113000045C0000060C000005EC000005CC000008D
S11300105AC0000058C0000056C0000054C0000080
S113002052C00000B2C100004EC000004CC000002D
S11300304AC0000048C0000046C0000044C00000A0
S113004042C0000040C000003EC000003CC00000B0
S11300503AC0000038C0000036C0000034C00000C0
S113006032C0000030C000002EC000002CC00000D0
S11300702AC0000028C0000026C0000024C00000E0
S113008022C0000020C000001EC0000011241FBEBA
S1130090CFEFD0E1DEBFCDBF11E0A0E0B1E0EEEAEA
S11300A0F4E000E00BBF02C007900D92AA30B10744
S11300B0D9F721E0AAE0B1E001C01D92A431B20752
S11300C0E1F78BD1F2C19CCF80910D0190910E018B
S11300D0A0910F01B0911001BC01CD016F5F7F4F62
S11300E08F4F9F4F28EE33E040E050E099D160936A
S11300F00D0170930E0180930F0190931001672BF3
S1130100682B692BF9F48091130190E001966CE35C
S113011070E073D180931301811114C08091120196
S113012090E001966CE370E068D180931201811134
S113013009C08091110190E0019668E170E05DD101
S11301408093110108951ED010920D0110920E019A
S113015010920F01109210011092130110921201CB
S1130160109211013EC10895209112018091130152
S113017090E034E6239F800D911D1124FBC0089567
S1130180F3CF08958FEF8093610082B90895CF93E0
S1130190DF93CDB7DEB72A970FB6F894DEBF0FBE54
S11301A0CDBFAC018AE0E0E0F1E0DE011196019000
S11301B00D928A95E1F780910A0190E0019683708F
S11301C09078992324F401978C6F9F6F0196809304
S11301D00A0183B1806F83B980910A01813009F4E7
S11301E03EC038F0823009F46AC0833009F495C007
S11301F0B8C09A0136952795369527953695279553
S1130200A5ECB0E22FD1AC01529542954F70452731
S11302105F7045279A01ADECBCEC24D19695879587
S113022096958795969587959C01220F331F880F85
S1130230991F880F991F880F991F820F931F9A0186
S1130240281B390BE1E0F0E0EC0FFD1FE20FF31F78
S113025080818093620083B18F7E83B982C09A01CA
S11302603695279536952795ABE7B4E1FBD0AC01DD
S1130270569547959A01ADECBCECF4D096958795CC
S113028096958795969587959C01220F331F880F25
S1130290991F880F991F880F991F820F931F9A0126
S11302A0281B390BE1E0F0E0EC0FFD1FE20FF31F18
S11302B080818093620083B18F7D83B952C09A019B
S11302C0ADECBCECCFD0AC0156954795569547950F
S11302D0569547959A01C6D0969587959695879594
S11302E0969587959C01220F331F880F991F880FBD
S11302F0991F880F991F820F931F9A01281B390B8E
S1130300E1E0F0E0EC0FFD1FE20FF31F808180932A
S1130310620083B18F7B83B924C09A01ADECBCEC3D
S1130320A1D09695879596958795969587959C01E6
S1130330220F331F880F991F880F991F880F991F49
S1130340820F931F9A01281B390BE1E0F0E0EC0FB8
S1130350FD1FE20FF31F80818093620083B18F77CA
S113036083B92A960FB6F894DEBF0FBECDBFDF91D6
S1130370CF91089590930C0180930B01089580917F
S11303800B0190910C0103CF08951F920F920FB6A9
S11303900F9211240BB60F922F933F934F935F93B9
S11303A06F937F938F939F93AF93BF93EF93FF9339
S11303B0E6DF8ADEFF91EF91BF91AF919F918F911C
S11303C07F916F915F914F913F912F910F900BBE51
S11303D00F900FBE0F901F901895B5DE7894D0DE65
S11303E0FECF85B5836085BD85B5886085BD87B73B
S11303F0806887BF89EF83BD089597FB072E16F4A5
S1130400009406D077FD08D03CD007FC05D03EF41C
S1130410909581959F4F0895709561957F4F0895AC
S1130420A1E21A2EAA1BBB1BFD010DC0AA1FBB1FF4
S1130430EE1FFF1FA217B307E407F50720F0A21B66
S1130440B30BE40BF50B661F771F881F991F1A94D3
S113045069F760957095809590959B01AC01BD01FD
S1130460CF010895A29FB001B39FC001A39F700D57
S1130470811D1124911DB29F700D811D1124911DA8
S11304800895AA1BBB1B51E107C0AA1FBB1FA617D7
S1130490B70710F0A61BB70B881F991F5A95A9F729
S11104A080959095BC01CD010895F894FFCF8E
S10D04AE3F065B4F666D7D077F6714
S9030000FC
