S011000074696D65436C6F636B2E7372656378
S113000045C0000060C000005EC000005CC000008D
S11300105AC0000058C0000056C0000054C0000080
S113002052C0000098C200004EC000004CC0000046
S11300304AC0000048C0000046C0000044C00000A0
S113004042C0000040C000003EC000003CC00000B0
S11300503AC0000038C0000036C0000034C00000C0
S113006032C0000030C000002EC000002CC00000D0
S11300702AC0000028C0000026C0000024C00000E0
S113008022C0000020C000001EC0000011241FBEBA
S1130090CFEFD0E1DEBFCDBF11E0A0E0B1E0EEEAEA
S11300A0F6E000E00BBF02C007900D92AC30B10740
S11300B0D9F721E0ACE0B1E001C01D92A033B20752
S11300C0E1F771D2F2C29CCF80911101909112019B
S11300D0A0911301B0911401BC01CD016F5F7F4F5A
S11300E08F4F9F4F28EE33E040E050E099D2609369
S11300F01101709312018093130190931401672BE3
S1130100682B692B01F511D28091290190E00196A9
S11301106CE370E072D280932901811114C0809144
S1130120280190E001966CE370E067D28093280187
S1130130811109C08091210190E0019668E170E08D
S11301405CD2809321010895E5D0109211011092A0
S113015012011092130110921401109229011092AD
S1130160280110922101109210013BD220E049E3B2
S113017050E06AE370E085E191E093D021E049E347
S113018050E06AE370E08BE191E08BD022E049E338
S113019050E06AE370E082E291E083D023E049E337
S11301A050E06AE370E08AE291E07BC00895209118
S11301B021018091280190E034E6239F800D911D58
S11301C01124BEC10895CF93DF932091290184E6C1
S11301D0289FE00111246091110170911201809116
S11301E01301909114012AE030E040E050E018D26D
S11301F0CE01820F931FA4D1DF91CF9108958091F6
S113020010018130A1F018F08230C9F01FC085E1DF
S113021091E054D0823019F481E0809310018BE195
S113022091E04CD0823091F4809310010FC085E1AD
S113023091E044D0823051F41092100107C08BE158
S113024091E03CD0823011F41092100180911001A1
S1130250813031F018F0823029F00895A8CF089544
S1130260B2CF089582E291E029D0823051F4809196
S1130270210190E0019668E170E0BFD180932101F3
S113028096DF8AE291E01AD0823051F480912801FD
S113029090E0019668E170E0B0D18093280187CFA7
S11302A00895FC01CB0171836083538342832483CB
S11302B031E03583422F60E07AC10895FC01A281C8
S11302C0B3818C9121E030E0048002C0220F331FFF
S11302D00A94E2F7282359F48581813041F4AFE38D
S11302E0BCE91197F1F700C000001582089522239C
S11302F069F0858181110CC08FE39CE90197F1F7C6
S113030000C0000081E0858382E0089580E00895C4
S113031080E008958FEF8093610082B908950F9370
S11303201F93CF93DF93CDB7DEB72B970FB6F89417
S1130330DEBF0FBECDBF8C018BE0E0E0F1E0DE015B
S1130340119601900D928A95E1F780910C0190E04D
S1130350019665E070E051D180930C0183B1806F08
S113036083B980910C01823009F474C030F488237D
S113037059F0813009F43EC0CDC0833009F498C0EF
S1130380843009F4BAC0C6C09801369527953695CD
S1130390279536952795A5ECB0E264D1AC0152952A
S11303A042954F7045275F7045279A01ADECBCEC30
S11303B059D19695879596958795969587959C019D
S11303C0220F331F880F991F880F991F880F991FB9
S11303D0820F931F9A01281B390BE1E0F0E0EC0F28
S11303E0FD1FE20FF31F80818093620083B18F7E33
S11303F083B990C098013695279536952795ABE734
S1130400B4E130D1AC01569547959A01ADECBCEC02
S113041029D19695879596958795969587959C016C
S1130420220F331F880F991F880F991F880F991F58
S1130430820F931F9A01281B390BE1E0F0E0EC0FC7
S1130440FD1FE20FF31F80818093620083B18F7DD3
S113045083B960C09801ADECBCEC04D1AC015695F5
S1130460479556954795569547959A01FBD096958D
S1130470879596958795969587959C01220F331FAE
S1130480880F991F880F991F880F991F820F931F38
S11304909A01281B390BE1E0F0E0EC0FFD1FE20F9D
S11304A0F31F80818093620083B18F7B83B932C054
S11304B09801ADECBCECD6D096958795969587952A
S11304C0969587959C01220F331F880F991F880FDB
S11304D0991F880F991F820F931F9801281B390BAE
S11304E0E1E0F0E0EC0FFD1FE20FF31F8081809349
S11304F0620083B18F7783B90DC080910D01882389
S113050021F08B858093620002C01092620083B157
S11305108F7D83B92B960FB6F894DEBF0FBECDBF87
S1130520DF91CF911F910F91089580910D01882340
S113053019F010920D01089581E080930D01089542
S113054090930F0180930E01089580910E01909174
S11305500F01E5CE08951F920F920FB60F9211244A
S11305600BB60F922F933F934F935F936F937F93A9
S11305708F939F93AF93BF93EF93FF93E6DFA4DD35
S1130580FF91EF91BF91AF919F918F917F916F9167
S11305905F914F913F912F910F900BBE0F900FBE23
S11305A00F901F901895D0DD789429DEFECFFC01C2
S11305B0613059F4208181E090E002C0880F991FD6
S11305C04A95E2F7822B80830895908121E030E000
S11305D002C0220F331F4A95E2F720952923208376
S11305E0089585B5836085BD85B5886085BD87B769
S11305F0806887BF89EF83BD089597FB072E16F4A3
S1130600009406D077FD08D03CD007FC05D03EF41A
S1130610909581959F4F0895709561957F4F0895AA
S1130620A1E21A2EAA1BBB1BFD010DC0AA1FBB1FF2
S1130630EE1FFF1FA217B307E407F50720F0A21B64
S1130640B30BE40BF50B661F771F881F991F1A94D1
S113065069F760957095809590959B01AC01BD01FB
S1130660CF010895A29FB001B39FC001A39F700D55
S1130670811D1124911DB29F700D811D1124911DA6
S11306800895AA1BBB1B51E107C0AA1FBB1FA617D5
S1130690B70710F0A61BB70B881F991F5A95A9F727
S11106A080959095BC01CD010895F894FFCF8C
S10F06AE3F065B4F666D7D077F67800090
S9030000FC
