:1000000045C0000053C0000051C000004FC00000B8
:100010004DC000004BC0000049C0000047C00000B8
:1000200045C0000043C0000041C000003FC00000C8
:100030003DC000003BC0000039C0000037C00000D8
:1000400035C0000033C0000031C000002FC00000E8
:100050002DC000002BC0000029C0000027C00000F8
:1000600025C0000023C0000021C000001FC0000008
:100070001DC000001BC0000019C0000017C0000018
:1000800015C0000013C0000011C0000011241FBEE5
:10009000CFEFD0E1DEBFCDBF21E0A0E0B1E001C0F5
:1000A0001D92A130B207E1F7BED0E4C0A9CF0F93F3
:1000B0001F93CF93DF938B01EA0181110FC093D07F
:1000C000CE0160D0823019F41092000139C0C8010D
:1000D00059D08230A9F51092000132C0813079F4F4
:1000E0008AD0CE014FD0823019F41092000128C07E
:1000F000C80148D0823021F51092000121C0823021
:1001000079F481D0CE013ED0823019F410920001F2
:1001100017C0C80137D0823099F41092000110C086
:10012000833071F478D0CE012DD0823019F4109242
:10013000000106C0C80126D0823011F410920001DF
:100140002FEF87E893E1215080409040E1F700C015
:100150000000DF91CF911F910F910895FC017183F1
:10016000608353834283248381E08583FB01308154
:1001700081E090E002C0880F991F2A95E2F783235F
:1001800080830895FC01A281B3818C9121E030E04D
:10019000048002C0220F331F0A94E2F7282359F487
:1001A0008581813041F4AFE3BCE91197F1F700C0DC
:1001B000000015820895222369F0858181110CC009
:1001C0008FE39CE90197F1F700C0000081E085838F
:1001D00082E0089580E0089580E0089582BB08954C
:1001E0008FEF81BB08959091000181E08927809372
:1001F0000001F4CF08959091000182E08927809357
:100200000001ECCF08959091000184E0892780934C
:100210000001E4CF08959091000188E08927809340
:100220000001DCCF0895CF93DF93CDB7DEB72C97D5
:100230000FB6F894DEBF0FBECDBF8FEF81BB8BBB77
:1002400020E049E350E06AE370E0CE01019686DFEA
:1002500021E049E350E06AE370E0CE0107967EDFDB
:10026000BFDFAE014F5F5F4FBE01695F7F4F80E030
:080270001EDFF7CFF894FFCF69
:00000001FF
