:1000000045C0000060C000005EC000005CC0000091
:100010005AC0000058C0000056C0000054C0000084
:1000200052C0000061C200004EC000004CC0000081
:100030004AC0000048C0000046C0000044C00000A4
:1000400042C0000040C000003EC000003CC00000B4
:100050003AC0000038C0000036C0000034C00000C4
:1000600032C0000030C000002EC000002CC00000D4
:100070002AC0000028C0000026C0000024C00000E4
:1000800022C0000020C000001EC0000011241FBEBE
:10009000CFEFD0E1DEBFCDBF11E0A0E0B1E0E6EDF3
:1000A000FBE000E00BBF02C007900D92A032B10749
:1000B000D9F721E0A0E2B1E001C01D92A434B2075B
:1000C000E1F739D286C59CCF809121019091220120
:1000D000A0912301B0912401BC01CD016F5F7F4F3E
:1000E0008F4F9F4F28EE33E040E050E061D26093A5
:1000F0002101709322018093230190932401672BA7
:10010000682B692BF9F480913D0190E001966CE336
:1001100070E03BD280933D01811114C080913C017D
:1001200090E001966CE370E030D280933C01811145
:1001300009C08091340190E0019668E170E025D219
:100140008093340108957AD11092210110922201F6
:10015000109223011092240110923D0110923C0153
:10016000109234011092200104D220E049E350E0C3
:100170006AE370E085E291E0E2D021E049E350E0FB
:100180006AE370E085E391E0DAD022E049E350E0F1
:100190006AE370E08EE391E0D2D023E049E350E0DF
:1001A0006AE370E08DE291E0CAC008950F931F9357
:1001B000CF93DF93CDB7DEB76E970FB6F894DEBF5F
:1001C0000FBECDBF182F062F80913D018A30C8F495
:1001D0001F928F9380913C011F928F9380913401E5
:1001E0001F928F9380E091E09F938F93CE010196B1
:1001F0009F938F9313D20FB6F894DEBF0FBECDBF7F
:1002000018C01F928F9380913C011F928F93809111
:1002100034011F928F938AE091E09F938F93CE01D8
:1002200001969F938F93FAD10FB6F894DEBF0FBE5D
:10023000CDBFAE014F5F5F4F602F812F4CD16E96C7
:100240000FB6F894DEBF0FBECDBFDF91CF911F91E7
:100250000F91089585E391E07FD0823049F4809139
:100260002C0190E0019668E170E08FD180932C0121
:100270008EE391E071D0823049F48091330190E0B7
:10028000019668E170E081D1809333018DE291E0C5
:1002900063D0823049F480912B0190E001966CE3A9
:1002A00070E073D180932B0180912C0180933401F5
:1002B0008091330180933C0180912B0180933D011B
:1002C00043E151E063E080E006D165E070E081E069
:1002D00090E06CCF089580912001882319F081303F
:1002E000B1F01EC085E291E037D08230C9F481E0E0
:1002F000809320018091340180932C0180913C01F6
:100300008093330180913D0180932B0109C085E2E8
:1003100091E022D0823021F41092200181E084D03B
:1003200080912001882319F0813039F0089565E02B
:1003300070E080E090E03ACF08958CCF0895FC0102
:10034000CB017183608353834283248331E03583FF
:10035000422F60E0F4C00895FC01A281B3818C912A
:1003600021E030E0048002C0220F331F0A94E2F73C
:10037000282359F48581813041F4AFE3BCE911971A
:10038000F1F700C0000015820895222369F08581ED
:1003900081110CC08FE39CE90197F1F700C00000C8
:1003A00081E0858382E0089580E0089580E00895EB
:1003B00088BB089585BB089587B3806E87BB84B3DF
:1003C0008FEF84BB089580913B018F7D80933B012B
:1003D000EFCF089580913B01806280933B01E8CF8D
:1003E000089580913B018F7B80933B01E1CF08957D
:1003F00080913B01806880933B01DADF8FE99FE0C9
:100400000197F1F700C00000089580913B018F77BC
:1004100080933B01CDDF8FE99FE00197F1F700C0AA
:1004200000000895C7CF0895CF93C82FCCDFD9DF40
:10043000DFDF8C2FF7DFE9DFCF910895BDDF8FE598
:100440009AEE0197F1F700C0000088E3EDDF8FE13D
:100450009EE40197F1F700C0000088E3E5DF8FE933
:100460009FE00197F1F700C0000088E3DDDF88E33B
:10047000DBDF88E0D9DF81E0D7DF86E0D5DF8CE005
:10048000D3CF0895CF93C82FA5DFABDFB1DF8C2F7B
:10049000C9DFBBDFCF9108950F931F93CF93DF93F5
:1004A0008C01C0E0D0E002C0EDDF2196F801EC0F36
:1004B000FD1F80818111F8CFDF91CF911F910F91A6
:1004C00008956F70817090E4899F600D1124862FCC
:1004D0008058AACF0895CF93DF93EA01F2DFCE01CF
:1004E000DBDFDF91CF9108951F920F920FB60F922D
:1004F00011240BB60F922F933F934F935F936F93FB
:100500007F938F939F93AF93BF93EF93FF93DCDD24
:10051000FF91EF91BF91AF919F918F917F916F91DB
:100520005F914F913F912F910F900BBE0F900FBE97
:100530000F901F90189507DE7894CDDEFECFFC015A
:10054000613059F4208181E090E002C0880F991F4A
:100550004A95E2F7822B80830895908121E030E074
:1005600002C0220F331F4A95E2F7209529232083EA
:10057000089585B5836085BD85B5886085BD87B7DD
:10058000806887BF89EF83BD089597FB072E16F417
:10059000009406D077FD08D02DD007FC05D03EF49E
:1005A000909581959F4F0895709561957F4F08951F
:1005B000A1E21A2EAA1BBB1BFD010DC0AA1FBB1F67
:1005C000EE1FFF1FA217B307E407F50720F0A21BD9
:1005D000B30BE40BF50B661F771F881F991F1A9446
:1005E00069F760957095809590959B01AC01BD0170
:1005F000CF010895AA1BBB1B51E107C0AA1FBB1F57
:10060000A617B70710F0A61BB70B881F991F5A959E
:10061000A9F780959095BC01CD0108950F931F9384
:10062000CF93DF93CDB7DEB72E970FB6F894DEBF2A
:100630000FBECDBF0D891E8986E08C831A83098386
:100640008FEF9FE79E838D83AE01475E5F4F6F897B
:10065000788DCE01019610D0EF81F885E00FF11F63
:1006600010822E960FB6F894DEBF0FBECDBFDF917D
:10067000CF911F910F9108952F923F924F925F92C9
:100680006F927F928F929F92AF92BF92CF92DF92A2
:10069000EF92FF920F931F93CF93DF93CDB7DEB707
:1006A0002B970FB6F894DEBF0FBECDBF6C017B0158
:1006B0008A01FC0117821682838181FFBFC1CE01AE
:1006C00001963C01F6019381F70193FD859193FF1B
:1006D00081917F01882309F4ADC1853239F493FDFE
:1006E000859193FF81917F01853221F4B60190E0DD
:1006F000D6D1E8CF912C212C312CFFE1F315D8F085
:100700008B3279F038F4803279F08332A1F4232DE2
:1007100020611DC08D3261F0803369F4232D21608A
:1007200016C0832D8260382EE32DE4603E2E2AC051
:10073000F32DF8601DC037FC2DC020ED280F2A30A6
:1007400040F08E32B9F436FC75C1232D2064322E70
:1007500019C036FE06C08AE0989E200D1124922E04
:1007600011C0EAE02E9E200D1124222EF32DF062FE
:100770003F2E08C08C3621F4832D8068382E02C0AD
:10078000883641F4F70193FD859193FF81917F01B4
:100790008111B3CF982F9F7D9554933028F40C5F2F
:1007A0001F4F9FE399830DC0833631F0833771F07B
:1007B000833509F055C020C0F801808189830E5F20
:1007C0001F4F88248394912C530112C02801F2E01A
:1007D0004F0E511CF801A080B18036FE03C0692D78
:1007E00070E002C06FEF7FEFC5014ED14C01820176
:1007F000F32DFF773F2E15C0280122E0420E511C39
:10080000F801A080B18036FE03C0692D70E002C0FF
:100810006FEF7FEFC5012DD14C01F32DF0683F2E16
:10082000820133FC19C0822D90E088169906A0F44D
:10083000B60180E290E033D12A94F5CFF50137FC80
:10084000859137FE81915F01B60190E028D121109A
:100850002A9421E0821A91088114910479F7E1C069
:10086000843611F0893639F5F80137FE07C060810A
:100870007181828193810C5F1F4F08C060817181FB
:10088000072E000C880B990B0E5F1F4FF32DFF7680
:100890003F2E97FF09C090958095709561957F4F89
:1008A0008F4F9F4FF0683F2E2AE030E0A30133D1F5
:1008B000882E861844C0853731F4232D2F7EB22E22
:1008C0002AE030E025C0932D997FB92E8F36C1F0F4
:1008D00018F4883579F0AEC0803719F0883721F0E8
:1008E000A9C0E92FE061BE2EB4FE0DC0FB2DF4605F
:1008F000BF2E09C034FE0AC0292F2660B22E06C0C2
:1009000028E030E005C020E130E002C020E132E024
:10091000F801B7FE07C060817181828193810C5F0D
:100920001F4F06C06081718180E090E00E5F1F4F15
:10093000A301F1D0882E8618FB2DFF773F2E36FEBF
:100940000DC0232D2E7FA22E891458F434FE0BC027
:1009500032FC09C0832D8E7EA82E05C0B82CA32C96
:1009600003C0B82C01C0B92CA4FE0FC0FE01E80DD5
:10097000F11D8081803321F49A2D997EA92E09C022
:10098000A2FE06C0B394B39404C08A2D867809F001
:10099000B394A3FC10C0A0FE06C0B21480F4280CCF
:1009A000922C9B180DC0B21458F4B60180E290E06E
:1009B00076D0B394F8CFB21418F42B1802C0982C48
:1009C000212CA4FE0FC0B60180E390E068D0A2FE07
:1009D00016C0A1FC03C088E790E002C088E590E063
:1009E000B6010CC08A2D867851F0A1FE02C08BE2C0
:1009F00001C080E2A7FC8DE2B60190E050D08914DE
:100A000030F4B60180E390E04AD09A94F8CF8A940B
:100A1000F301E80DF11D8081B60190E040D0811016
:100A2000F6CF222009F44ECEB60180E290E037D016
:100A30002A94F7CFF6018681978102C08FEF9FEF4E
:100A40002B960FB6F894DEBF0FBECDBFDF91CF91CE
:100A50001F910F91FF90EF90DF90CF90BF90AF90DC
:100A60009F908F907F906F905F904F903F902F90CE
:100A70000895FC010590615070400110D8F78095F1
:100A800090958E0F9F1F0895FC016150704001905A
:100A90000110D8F7809590958E0F9F1F08950F93A2
:100AA0001F93CF93DF93FB01238121FD03C08FEFC1
:100AB0009FEF2CC022FF16C04681578124813581CB
:100AC0004217530744F4A081B1819D012F5F3F4F2E
:100AD000318320838C93268137812F5F3F4F37836B
:100AE000268314C08B01EC01FB010084F185E02D0D
:100AF0000995892BE1F6D80116968D919C9117974F
:100B0000019617969C938E931697CE01DF91CF9105
:100B10001F910F910895FA01AA27283051F1203131
:100B200081F1E8946F936E7F6E5F7F4F8F4F9F4F81
:100B3000AF4FB1E03ED0B4E03CD0670F781F891FC3
:100B40009A1FA11D680F791F8A1F911DA11D6A0F91
:100B5000711D811D911DA11D20D009F468943F9144
:100B60002AE0269F11243019305D3193DEF6CF0143
:100B70000895462F4770405D4193B3E00FD0C9F709
:100B8000F6CF462F4F70405D4A3318F0495D31FD76
:100B90004052419302D0A9F7EACFB4E0A6959795C9
:100BA000879577956795BA95C9F70097610571059F
:100BB00008959B01AC010A2E0694579547953795E9
:100BC0002795BA95C9F7620F731F841F951FA01D43
:060BD0000895F894FFCF28
:100BD60025643A25643A3025640025643A25643A4A
:100BE6002564004D6F64696679206D6F6465000049
:00000001FF
