:1000000045C0000053C0000051C000004FC00000B8
:100010004DC000004BC0000049C0000047C00000B8
:1000200045C0000043C0000041C000003FC00000C8
:100030003DC000003BC0000039C0000037C00000D8
:1000400035C0000033C0000031C000002FC00000E8
:100050002DC000002BC0000029C0000027C00000F8
:1000600025C0000023C0000021C000001FC0000008
:100070001DC000001BC0000019C0000017C0000018
:1000800015C0000013C0000011C0000011241FBEE5
:10009000CFEFD0E1DEBFCDBF21E0A0E0B1E001C0F5
:1000A0001D92AD30B207E1F7A4D0F3C0A9CF81E033
:1000B0008093000120E049E350E06AE370E087E0CC
:1000C00091E056D021E049E350E06AE370E081E03E
:1000D00091E04ED081E390E084C0089587E091E004
:1000E00054D0823049F48091000190E0019665E09F
:1000F00070E0A8D08093000181E091E046D082308A
:1001000011F410920001089582E390E06DC008950B
:1001100063E082E390E06BC008956FE082E390E0DB
:1001200066C008956FE382E390E061C008956FEFC9
:1001300082E390E05CC0089580910001823079F004
:1001400028F4882341F0813041F00895833049F04C
:10015000843049F00895D8CF0895DACF0895DDCFDF
:100160000895E0CF0895E3CF0895B8DFE5CF08956F
:10017000FC01CB017183608353834283248331E08C
:100180003583422F60E041C00895FC01A281B38114
:100190008C9121E030E0048002C0220F331F0A94CA
:1001A000E2F7282359F48581813041F4AFE3BCE9BB
:1001B0001197F1F700C0000015820895222369F01D
:1001C000858181110CC08FE39CE90197F1F700C094
:1001D000000081E0858382E0089580E0089580E05A
:1001E000089561E009C0089560E029C0089527C01E
:1001F00008955DDFBADFFECF613021F42FEFFC01FF
:1002000020830895FC0110820895FC01613059F4A7
:10021000208181E090E002C0880F991F4A95E2F7A3
:10022000822B80830895908121E030E002C0220F6C
:10023000331F4A95E2F72095292320830895FC0176
:100240006083089597FB072E16F4009406D077FD7F
:1002500008D00BD007FC05D03EF4909581959F4FB8
:100260000895709561957F4F0895AA1BBB1B51E1BE
:1002700007C0AA1FBB1FA617B70710F0A61BB70B16
:10028000881F991F5A95A9F780959095BC01CD01BB
:060290000895F894FFCF71
:00000001FF
