:1000000045C0000053C0000051C000004FC00000B8
:100010004DC000004BC0000049C0000047C00000B8
:1000200045C0000043C0000041C000003FC00000C8
:100030003DC000003BC0000039C0000037C00000D8
:1000400035C0000033C0000031C000002FC00000E8
:100050002DC000002BC0000029C0000027C00000F8
:1000600025C0000023C0000021C000001FC0000008
:100070001DC000001BC0000019C0000017C0000018
:1000800015C0000013C0000011C0000011241FBEE5
:10009000CFEFD0E1DEBFCDBF21E0A0E0B1E001C0F5
:1000A0001D92A130B207E1F7B9D0E0C0A9CFFC01A1
:1000B0007183608353834283248381E08583FB01C2
:1000C000308181E090E002C0880F991F2A95E2F705
:1000D000832380830895FC01A281B3818C9121E068
:1000E00030E0048002C0220F331F0A94E2F7282375
:1000F00059F48581813041F4AFE3BCE91197F1F700
:1001000000C0000015820895222369F085818111C5
:100110000CC08FE39CE90197F1F700C0000081E07B
:10012000858382E0089580E0089580E008959091AD
:10013000000181E089278093000182BB089590919E
:10014000000182E089278093000182BB089590918D
:10015000000184E089278093000182BB089590917B
:10016000000188E089278093000182BB08950F93E6
:100170001F93CF93DF938B01EA018130A9F028F020
:10018000823009F1833071F13BC0D1DFCE01A3DFB2
:10019000823019F41092000133C0C8019CDF823014
:1001A00079F5109200012CC0CADFCE0194DF8230B5
:1001B00019F41092000124C0C8018DDF823001F5CE
:1001C000109200011DC0C3DFCE0185DF823019F41B
:1001D0001092000115C0C8017EDF823089F41092B0
:1001E00000010EC0BCDFCE0176DF823019F4109220
:1001F000000106C0C8016FDF823011F410920001C7
:100200002FEF83EC99E0215080409040E1F700C04F
:100210000000DF91CF911F910F910895CF93DF934D
:10022000CDB7DEB72C970FB6F894DEBF0FBECDBFAB
:100230008FEF81BB81E08093000120E049E350E033
:100240006AE370E0CE01019632DF21E049E350E03D
:100250006AE370E0CE0107962ADFAE014F5F5F4F81
:10026000BE01695F7F4F80E082DFF7CFF894FFCF58
:00000001FF
